:020000040800F2
:100000000020002055470008A5470008A547000824
:1000100000000000000000000000000000000000E0
:10002000000000000000000000000000A5470008DC
:100030000000000000000000A54700088B400008F9
:10004000A547000800000000A5470008A5470008D4
:10005000A54700085D4600086D4600087D4600087B
:1000600000000000A5470008A5470008A5470008B4
:10007000A547000889110008A11100080000000030
:10008000A91100080000000000000000C1110008D4
:1000900000000000D9110008F1110008910F0008BC
:1000A000A90F0008A5470008A547000885450008D6
:0800B0009D450008000000005E
:1000B80002B4714649084900095C49008E4402BCF3
:1000C8007047C046002243088B4274D303098B4211
:1000D8005FD3030A8B4244D3030B8B4228D3030C10
:1000E8008B420DD3FF22090212BA030C8B4202D3B2
:1000F8001212090265D0030B8B4219D300E0090ADA
:10010800C30B8B4201D3CB03C01A5241830B8B42E2
:1001180001D38B03C01A5241430B8B4201D34B03CB
:10012800C01A5241030B8B4201D30B03C01A524130
:10013800C30A8B4201D3CB02C01A5241830A8B42B5
:1001480001D38B02C01A5241430A8B4201D34B029E
:10015800C01A5241030A8B4201D30B02C01A524102
:10016800CDD2C3098B4201D3CB01C01A52418309B6
:100178008B4201D38B01C01A524143098B4201D3F0
:100188004B01C01A524103098B4201D30B01C01A1B
:100198005241C3088B4201D3CB00C01A5241830895
:1001A8008B4201D38B00C01A524143088B4201D3C2
:1001B8004B00C01A5241411A00D201465241104622
:1001C8007047FFE701B5002000F006F802BDC04601
:1001D8000029F7D076E770477047C04610B5064C3F
:1001E8002378002B07D1054B002B02D0044800E0F0
:1001F80000BF0123237010BDAC00002000000000E8
:100208000C4E0008044B10B5002B03D003490448DA
:1002180000E000BF10BDC04600000000B000002094
:100228000C4E000870470000114B70B51D78002D6A
:1002380010D1C82004F060FB0E4C00280BD004F04D
:1002480099FB082120600C4803F042F9290011208D
:1002580004F016FB70BD04F08DFB2368C01A0A2851
:10026800F8D90821044803F085F90121EFE7C046D1
:100278002502002028020020D801002010B5040023
:1002880086B01422002101A804F017FC0B4B226849
:100298009A4210D102230A4A0A48516B1943516302
:1002A800526B01A91A400092009A0122029301920E
:1002B800059201F08BF906B010BDC046000400405D
:1002C800001002400004005000B593B03422002111
:1002D80005A804F0F2FB0021102201A804F0EDFBB0
:1002E8008020800002F074F802230593FE33402238
:1002F8000893002305A809930A920C9302F094F836
:10030800011E00D0FEE7072302900390049001A885
:10031800019302F0E9FA002800D0FEE713B000BD0F
:1003280010B58EB01022002103A804F0C6FB0C22E1
:100338000021684604F0C1FB1C22002107A804F034
:10034800BCFB1E4C1E4B91222360002320006360DF
:10035800A360E2602361A36102F07AFE002800D066
:10036800FEE7802320005B0103A9039302F090FFBE
:10037800002800D0FEE7200002F094FE002800D0FC
:10038800FEE7009002906946200003F0F7F8002885
:1003980000D0FEE76023099007930B901A3B0822D0
:1003A800200007A9089302F0E3FE002800D0FEE72A
:1003B8002000FFF763FF0EB010BDC046D801002033
:1003C8000004004010B588B000F092FFFFF77CFFF2
:1003D80002201E4A516B01435163536B00210340B5
:1003E8001022009304A8009B04F067FB0C22002154
:1003F80001A804F062FB164C164B174A2360FF2332
:10040800636000232000A360E26023616361A3614D
:1004180002F01EFE002800D0FEE7802320005B01CA
:1004280004A9049302F034FF002800D0FEE70190ED
:100438000290039001A9200003F0A0F8002800D042
:10044800FEE7FFF76DFF08B010BDC0460010024080
:100458008C010020002C014023F4000070B5FFF748
:10046800B1FF0221C22004F0B5F90221C32004F033
:10047800B1F90121112004F0ADF90021C82004F0E0
:10048800A9F90121112004F0FBF9C32004F034FA82
:10049800431E9841254D2870C22004F02DFA020011
:1004A800531E9A41224B041E1A7008D10821214874
:1004B80003F00EF82100112004F0E2F9FEE72B7892
:1004C8000524002B13D1112664250021300004F0E7
:1004D800D7F9280004F052FA0121300004F0D0F9CD
:1004E800013C280004F04AFA002CEED11CE000235D
:1004F800114C1A000221200000F062FA20000F4976
:1005080000F0E3F820000E4900F0DCF8002111208B
:1005180004F0B6F9642004F031FA1120012104F046
:10052800AFF9642004F02AFA70BDC0462502002005
:1005380024020020D8010020C80000202D02000855
:100548006105000810B5C822C921024800F066F804
:1005580010BDC046C800002010B5104C200000F0A7
:1005680023F8012803DD200000F022F8F5E7200039
:1005780000F01EF8002808D10821094802F0FAFF07
:100588000121112004F07CF910BD0128FCD10821BB
:10059800034802F09DFF0021F3E7C046C800002091
:1005A800D801002000207047038BC08A181A7047B2
:1005B800C28A018B0300914204D90169885C013227
:1005C800DA82704701204042FBE7C38A028B9A42D5
:1005D80002D90269D05C704701204042FBE7026DF6
:1005E80010B51300BC331B68002B02D000215184C6
:1005F800984710BD00234360FA239B008360054B96
:1006080008330360044BDA6EC2679B6E021DD36722
:100618007047C046244E0008285100080023436054
:10062800FA239B008360244B10B508330360CBB2D8
:100638001B2B14D8E024E4000C4020499B00595897
:100648002143D3B2C1671B2B1FD8E021C900114039
:100658001A4A9B009A580A43031DDA6710BDC02442
:100668000C40C02C0ED1CF2B0CD83F23144C0B4080
:100678009B001B59E024E4002140104C9B001B59AF
:100688001943DEE701214942DBE7C0211140C029B7
:100698000ED1CF2B0CD83F23094913409B005B5840
:1006A800E021C9000A4005499B005B581A43D3E77B
:1006B80001225242D0E7C046244E000828510008C3
:1006C800E8500008C03001607047BC3001607047D6
:1006D80070B5838A05000C008B420AD2202900D20B
:1006E80020242100286904F0D3FA002802D02861C8
:1006F800AC8270BDFEE7F8B5046D05002700C03771
:100708003B68066E002B13D0E28A238B9A420FD3E4
:1007180031002000FFF7DCFF2900320020696C312E
:1007280004F0C2F900233000E38226833B6898472F
:10073800F8BD802370B5DB0005000C00994211D884
:10074800038C8B420BD20E00202900D220263100C8
:10075800E86904F09DFA002803D0E8612E8420009F
:1007680070BDFEE70024FAE713B56B46D971431D47
:10077800DB7F0400002B0FD0418C0131FFF7D9FF3C
:10078800002808D06B460120DA79E169638CCA54E5
:10079800638C0133638416BD6B460122D91D283052
:1007A80000F052FB43425841F5E770B5431DDB7F2B
:1007B80004000E001500002B11D0418C8918FFF79A
:1007C800B8FF002811D0E369608C2A00181831009E
:1007D80004F06AF9638C5B196384280070BD92B2D7
:1007E800283000F031FB0028F7D00025F5E703009A
:1007F800C06910B5002803D000211A8C04F05DF9F7
:1008080010BD002110B50400C1820183006988422F
:1008180002D0A28A04F051F9002320006384FFF774
:10082800E6FF10BDF0B505000F248BB0C06F03F0D4
:10083800B7FF002103F0CEFFEB6F1A092240042A0C
:1008480000D977E03E499200515823403D4A9B0029
:100858009A580B6913409A4262D00435E86F03F046
:100868009FFF012103F0B6FFEB6F142501931B09CD
:1008780023400293019B23400493029B9B00059312
:10088800029B042B59D80920FA212D4B059A2E4C8E
:100898009F58049B89009A002A4BD358BB62039344
:1008A800A3680693666801367043FFF70BFC0022C5
:1008B800069B0793A36806930799069B994231D232
:1008C8000799069BF31A5B18D218069B0793904268
:1008D800F0D80920FA21039B8900BB61A36808931B
:1008E800666801367043FFF7EDFB0022089B099309
:1008F800A36808930999089B994217D20999089BFC
:10090800F31A5B18D218089B09939042F0D8013D5E
:10091800002DB5D1019803F043FF290003F05AFFD9
:100928000BB0F0BD079B06995B1ACDE7099B0899A8
:100938005B1AE7E700231B69FFDE00239B62FBE7E6
:100948000C000020A44E000810E000E070B5040080
:1009580025000020BC35206160612083A076A46753
:100968002860651DE06120622600E8774800A51D23
:100978000139E87748424141B63631702100B73134
:100988000A702200B832200013702834FFF74AFF9B
:10099800EB7F01222000074900F0B4F93378002BDF
:1009A80007D12000044900F073FA2000034900F041
:1009B80065FA70BDA0860100E7050008FF0600087B
:1009C80010B5C9B2FFF7C2FF10BD000010B502484C
:1009D800FFF710FE10BDC0462C020020124A03008B
:1009E80010B5904217D1202002F040F8002811D10C
:1009F800C0220E4B92015B6D13408022520193423C
:100A080006D08022920193420CD0002B07D0FEE73B
:100A1800074B186810BD074A00209342FAD102F02C
:100A280011F8F7E70448F5E70054004000100240C9
:100A380044000020005800400024F400F0B5A7B09E
:100A48001291129A9A49D20003005058984204D140
:100A580088184068002800D028E1964D58088B5027
:100A680040191900FFF72EFB1C23129A924C5A4387
:100A78001359070058081900401913920093FFF7FB
:100A880021FB139B0290E418238BA1891493149AD9
:100A9800A07E8918E28AC31C0B920B9D7B43E289D6
:100AA8003239521B053AC91AFF3AFB18D31A228A5F
:100AB800784352191A92CA43D2171140DA43D2170F
:100AC80013401B910C9061687A481C93FFF7FAFA5F
:100AD800A1681D907748FFF7F5FA0C9A7B0032332E
:100AE8009B1818937B420593189B1E90FD18029B38
:100AF80001201793002301931033169300234042DB
:100B080010931499019A8C46120724920B9A019B10
:100B1800624415921599029ADBB2511A6A008A1A30
:100B2800209200221993189B0692EB1A0A930A9AAC
:100B38001A998A4200D29EE02499069A0A43002113
:100B4800219207911B9A079EB24200D988E01C9A0D
:100B5800B24200D284E0169A199EB24200D17FE0D8
:100B6800109A01321092072A00D99FE0628A139ED8
:100B78001F92219A0A432292159A521911920C9A9D
:100B8800AA1A0892209A0F92002204924A4A9219AD
:100B98002592089E0C9A92191F9E96424DD2089A49
:100BA800323A9208974248D2229E049A03953243D9
:100BB8002392029A119EAA1A921900920F9A0D92E4
:100BC80000220992029A009E96191E9AB24220D8D3
:100BD8001D9AB2421DD3259A968A039A964218D82E
:100BE800974216D2009A0E92002A01DA0D9A0E92B6
:100BF800179A0E9E96420CD22D4E099AB446239807
:100C08001043129AD20062445060199A16920E9AB2
:100C18001792059E099AB44680260132FF3209923E
:100C28000D9A760262440D92009AD2180092039AA5
:100C3800D2180392099AB242C4D1059E049AB446C6
:100C4800013204920F9A049E62440F92119AD218AC
:100C58001192089AD218089280225200964298D18E
:100C6800079AD218079280225202891880225203CA
:100C7800914200D066E7802149038C460A9AD2182F
:100C88000A92069A62440692802206995204914278
:100C980000D04CE70123019AED19D3180193059B65
:100CA800DB1B0593019B102B00D02AE727B0F0BD72
:100CB800F002002000CA9A3B504E00080E4A03007A
:100CC80010B5914212D90D4A914206D80068FFF733
:100CD80085FE0121FFF7B2FE10BD094A00209142AE
:100CE800FAD81868FFF77AFE0221F3E70068FFF7E1
:100CF80075FE0021EEE7C046A0860100801A0600B6
:100D080040420F00F0B587B0041E01910292039390
:100D180000D187E0444E406D310003F0A5FA434FFF
:100D280005003900A06D03F09FFA0100002D79D06D
:100D3800002877D0280003F0A0FA2060002871D09E
:100D48003B4B251D98424ED180223A4B9203D96BDA
:100D58001143D963D96B114004910499D96A0A43A4
:100D6800DA62DA6A34490A40DA62230017225C330D
:100D78001A70324B1D603900A06D03F05BFA310028
:100D8800606D03F057FA2368019963602000FFF74C
:100D980095FF039B0022E360029BA0602361230070
:100DA800A26162618F331B782600591E8B41DB04D8
:100DB8002362230090331B780020591E8B415B046B
:100DC8006362230045331A705C360221305600F006
:100DD800B5FA0020305600F0DBFA280000F032FDAA
:100DE80000281BD0FEE7164B9842C4D18022114B35
:100DF800D203D96B1143D963D96B11400591059979
:100E0800D96A0A43DA62DA6A0E490A40DA622300CA
:100E180018225C331A70094B5D60ACE70223206628
:100E28008D34237007B0F0BD804F0008444F000890
:100E38000054004000100240FFFFDFFF08030020BD
:100E480000580040FFFFBFFF70B5060014000120E6
:100E5800202A0AD8350000228C3593B29C4205D846
:100E680000202A781219D2B22A7070BD2B78885CBB
:100E78009B18F3186C3318700132EEE710B5002890
:100E880005D0002903D04166043000F009FE10BDEA
:100E980010B5002805D0002903D08166043000F081
:100EA800FFFD10BDF7B506000191893633780500BE
:100EB8001700041F012B09D1236E002B06D0636E87
:100EC800200098470223337000232366AB689F42B3
:100ED80014D1019A0023012A11D133702E00A26E79
:100EE80088369A4202D02000337090472900802328
:100EF8002800327868319B0400F0FAFCF7BD012223
:100F0800236680233270216E28006C3161185B04DF
:100F180000F058FDF2E770B5060089363378040012
:100F2800051F012B05D12B6E002B02D028006B6EFC
:100F3800984702233370002320002B6600F0B0FD91
:100F480070BDC36D011F10B51F2B02DC0B6E013382
:100F58000B66030089331B78DAB2012B06D10B6EBE
:100F68006C33C91880235B0400F02CFD10BD0023EE
:100F7800883003707047030010B58A331B78002B44
:100F880001D100F08DFD10BD044B10B51C68200088
:100F980000F09AFD200001F0DBF910BD08030020E5
:100FA800044B10B55C68200000F08EFD200001F0B5
:100FB800CFF910BD0803002003000A4910B50868DE
:100FC800C318EFF30882934205D90C220120064B7F
:100FD80040421A6010BD054A054C121B9342F4D2D8
:100FE8000B60F7E7000000208C04002000200020A0
:100FF80000040000FEE7000016220120014B4042D9
:101008001A6070478C04002001207047836810B56F
:101018000400002B05D00322010098470023A36099
:10102800E36010BD836810B50400002B02D00322D2
:1010380001009847200010BD0C4A0300002093428D
:1010480013D00B4A013093420FD00A4A0130934221
:101058000BD0094A0130934207D0084A9B185A1E00
:1010680093415842064B184004307047002C014009
:1010780000040040002000400044014000B8FEBFCA
:10108800FBFF000070B504000069FFF7D5FF0500FD
:101098002000103003F07AF90023084AAD00AB5065
:1010A80026002500E360B4356436B54204D0103D0F
:1010B8002800FFF7B7FFF8E7200070BD10030020F5
:1010C800F8B5040008000E00FFF7B6FF224FB8423B
:1010D80000D1FEE72569002D00D0FEE722001F4B56
:1010E8000C328000C25023002C3326611D7026006C
:1010F800203325636563A563E56325646564A5649A
:101108001D705D7003231036E36530002566E460CA
:1011180003F0E8F820006430FFF778FF200074300F
:10112800FFF774FF20008430FFF770FF2000943031
:10113800FFF76CFF2000A430FFF768FF8023300022
:1011480025606560A5606561E761A56125626562E6
:10115800A36201F07DFFF8BDFFFF0000100300202F
:101168000200002310B504008432C366C36793608D
:10117800936193620361FFF7A3FF200010BD000095
:10118800044B10B51868002802D0043001F06CFE3A
:1011980010BDC0461003002010B5FFF7F1FF10BDC9
:1011A800044B10B55868002802D0043001F05CFEEA
:1011B80010BDC04610030020044B10B598680028E5
:1011C80002D0043001F050FE10BDC04610030020CC
:1011D800044B10B5D868002802D0043001F044FE52
:1011E80010BDC04610030020044B10B51869002834
:1011F80002D0043001F038FE10BDC04610030020B4
:10120800836810B5002B01D103F0F8FDC368984737
:1012180010BD10B5002800D1FEE703F061F80068A2
:10122800C36E002B02D06430FFF7EAFF10BD10B583
:10123800FFF7EFFF10BD030010B5002800D1FEE74F
:10124800007F0138072812D8FEF732FF1604111262
:10125800111111140224180003F042F82401006847
:10126800643400198368002B01D0FFF7C9FF10BD53
:101278000324F0E70424EEE70124ECE710B5FFF7B8
:10128800DAFF10BD10B5FFF7D6FF10BD10B503F09B
:10129800F7FB10BD10B503F0FDFB10BD7047000053
:1012A80070B5104B05001978002901D1012070BDD7
:1012B800FA208000FEF706FF0B4B01001868FEF7C6
:1012C80001FF00F071F8041EF0D1032DEED80200E2
:1012D80001202900404200F031F8044B20001D6035
:1012E800E5E7C04604000020440000200800002074
:1012F8008023084A5B00116810B50B430020136077
:10130800FFF7CEFF041E03D1FFF7C8FF200010BD72
:101318000124FBE700200240034A044B11681B78B4
:101328005B1813607047C0462403002004000020A7
:10133800014B18687047C0462403002030B5FF25CC
:1013480003242A000440E400A24089012940D24332
:10135800A140C3B200280ADBC0240B4B80088000E0
:10136800C018A40003591A401143015130BD0F2081
:101378000340083B05489B089B001B18D86902409E
:101388001143D961F2E7C04600E100E000ED00E05A
:10139800002805DB1F2318401E3B8340014A1360C9
:1013A8007047C04600E100E08022431E520401203D
:1013B80093420DD2C021074A07485360036A0906C1
:1013C8001B021B0A0B430362002007239060136073
:1013D8007047C04610E000E000ED00E0002807DBA1
:1013E8001F23C02218401E3B8340024952008B50E5
:1013F8007047C04600E100E0704710B5FFF7FCFFFA
:1014080010BD704710B5041E01D1012010BD437FE7
:10141800DAB2002B02D10277FFF7F3FF02236377DA
:101428002379002B1CD118212368124A5A619A6823
:101438008A439A6062792368002A19D1013A6021A7
:101448001A619A6800208A4361690A4380219A6078
:101458009A688A43A1690A439A6001236377D5E7AA
:101468002000E268A16800F007F80028E2D0CCE785
:101478002269E4E7B71DC10430B51F230400012029
:10148800013B21D30D00DD400542F9D0102A14D0CC
:1014980005D8002A08D00120082A12D030BD012022
:1014A800182AFBD1062BF9D82068416118218368D6
:1014B8008B431A4382600020F0E70120072BF3D901
:1014C800ECE70F2BF0D9E9E7002AEDD00120E5E79A
:1014D8000300F0B50120002B09D0981DC27F5C1DC8
:1014E800022A05D00422DA6300230120E377F0BD45
:1014F8000E2519685E6C0A68AA430A603268114DA5
:101508002A40326001220E68944696430E601C21E0
:101518001A6C0D4E114062468A4077683A437260F1
:10152800D96C9A6C51601A6D002A05D0116829404F
:1015380011605A6D9B6D53600123C3770020E077DB
:10154800D5E7C046FFFEFFFF00000240F8B5811D49
:10155800CB7F022B04D00423C363033B1800F8BDE0
:101568000E240268154D1368076CA343136001230A
:1015780014689C431460446C22682A4022601C242E
:101588003C40A3400E4A566833435360C26C836C98
:101598005A60036D002B05D01A682A401A60436D03
:1015A800826D5A6001230024CB77431DDC77826B60
:1015B8001300A242D2D090472300CFE7FFFEFFFFDF
:1015C800000002400630C07FC0B270470023F0B56B
:1015D80085B00A681400DC4001D105B0F0BD0125D2
:1015E80014009D402C4001942A4200D18EE04A68A4
:1015F8005E0094460322644622400324B440E44338
:101608000294541E012C2AD88768029C2740CC6873
:10161800B4403C43846044680127AC4325006446D9
:1016280024093C409C402C434460C568029C2540EA
:101638008C68B4402C43C460022A12D1DC08072508
:10164800A4000419276A03940F241D40AD00AC4080
:10165800A7430C69AC402743039C276201E0032A97
:10166800E3D10468029DB24025402C001443046075
:10167800C0246246A402224248D0254A03259C0879
:10168800A400A4180F221D40ED00AA40A027266E32
:10169800FF0596430022B8420CD01E4F0132B842D3
:1016A80008D01D4F0132B84204D01C4F0132B84255
:1016B80000D00232AA40674632432266144C019A8F
:1016C8002668019DD2433543FF0201D435001540F9
:1016D800674625606668019D3543BF0201D4350021
:1016E8001540674665600E4C019DE66F3543BF03A4
:1016F80001D4350015406746E5670A4C019EE56F41
:101708002E43FF0301D415402E00E667013360E73E
:10171800001802400004005000080050000C00505F
:10172800081802400418024070B5084D0400EB6820
:10173800184202D0E86002F085FF2B69234203D0EB
:1017480020002C6102F082FF70BDC04600180240E4
:1017580003689A69920701D500229A620122996961
:10176800114202D199690A439A61704730B5039CC6
:1017780000682343120489051A43890D054B4568FF
:101788000A43640D1C435200A54352082A43426091
:1017980030BDC046FF63FF0310B5436B144C0AB25B
:1017A800A34202D0134CA3420ED1002A0ADB902395
:1017B800102917D0303B202914D00023402911D1FB
:1017C8000B430FE0B823F9E700239A4200DAB83355
:1017D800CA0701D5F22213438A0701D5F42213431D
:1017E8002029EDD001680A6813430B6010BDC0467C
:1017F800392200082D210008002310B5CA0708D592
:10180800030041331A7828231A401A33282A00D0B3
:10181800B0338A0708D502002824413212782240C2
:10182800A2420BD14422134309B2002901DAB8229B
:10183800134301680A689A430A6010BDF422F2E76C
:101848007047000070B504000120002C3FD025002F
:1018580041352B78DAB2002B05D123004033200024
:101868001A70FFF7EDFF242301212B7023681D4810
:101878001A68A6688A431A6061681B4A0A401A6196
:101888009A6802409A60E268012A21D180210902FF
:10189800314399605A68154911435960DA6861699A
:1018A8000240DA60226900200A43A16909020A435A
:1018B800DA60216AE2690A431A60012219680A4358
:1018C8001A60202360642B7020634234207070BD3E
:1018D8008421090231439960022ADBD18022120156
:1018E8005A60D7E7FF7FFFFFFFFFFFF0008000028D
:1018F800F0B5070085B00292282201910393413781
:101908003B78040001251340934208D1002902D0F6
:10191800029B002B06D1802301259B0063642800CD
:1019280005B0F0BD260023494036FFF765FF337840
:10193800012B3DD035703B781F4D2A2B16D1022143
:101948002000FFF759FF23681A6812040ED51A6899
:10195800E06B2A401A60002808D0184B8363FFF711
:10196800F5FD002802D0E06B836B984729233B7074
:1019780023002022002142331A70236861645A68C8
:101988001540019A5D606262029A6285628D2285C5
:10199800039AE2620A4A62639A69D20301D508226D
:1019A800DA61317020000349FFF7F6FE0025B6E73B
:1019B8000225B4E701800000FF7FFFFFBB2300087A
:1019C800191F0008F0B5070085B00292282201917E
:1019D800039341373B78040001251340934208D113
:1019E800002902D0029B002B06D1802301259B00F1
:1019F8006364280005B0F0BD260024494036FFF78F
:101A0800FBFE3378012B3ED035703B78292B17D15C
:101A180029002000FFF7F0FE23681A6852040FD54A
:101A28001A681B49A06B0A401A60002808D0194B95
:101A38008363FFF78BFD002802D0A06B836B984768
:101A48002A233B7023002022002142331A70236886
:101A580061645A68104802405A60019A6262029AA8
:101A68006285628D2285039AE2620C4A62639A69F2
:101A7800D20301D40822DA61317020000349FFF74C
:101A88008BFE0025B5E70225B3E7C04602800000BB
:101A9800FFBFFFFFBB230008FF7FFFFF191F0008E0
:101AA800020010B5413211780223202908D1802183
:101AB80026331370034B09024363FFF76DFE0023BF
:101AC800180010BD191F0008036810B599691A6835
:101AD800436B002B00D0984710BD70477047030038
:101AE80070B500252022060042331D70013B19788D
:101AF800040040361A7021290AD111234563036373
:101B08002039FFF779FE20003570FFF7E6FF70BD3A
:101B18001223456303630221FFF76EFE2000357030
:101B2800FFF7DCFFF3E700000100036810B50400CD
:101B380000201A68423108700121500418D51A682B
:101B480018490A401A60230041331A78292A15D106
:101B5800013A1A702123200023630121FFF74CFE6C
:101B680023000022403320001A70FFF700FA10BD4E
:101B7800D20B0A42E7D01A680B49E2E71A782A2AF8
:101B8800F5D1023A1A702223200023630221FFF7BD
:101B980033FE23000022403320001A70FFF7D1F9EA
:101BA800E5E7C046FFBFFFFFFF7FFFFF0300F7B574
:101BB800282241331B7804000168134093423CD12A
:101BC800FE278D698E698B68CA68ED030192C26829
:101BD800360CED0F3E40022A25D19B059A0D5B0F6E
:101BE8005E403000062318401E4210D1A36C01331A
:101BF800A364A36C022B09D10633A064CB61230034
:101C08004033187029002000FFF74CF9F7BD8021F8
:101C180020000902FFF7F0FD2300002240331A706C
:101C2800019A3A40EEE780210902FFF7E5FD23001B
:101C3800002240331A703200E4E70823CB61002306
:101C480040342370E2E70000184B10B5C36200234C
:101C58000200036304002020413210705370636354
:101C68004B0713D52368626A5B6A1370636A013392
:101C78006362238D002B09D0013B2385638D013BD3
:101C88009BB263850423626C134363642000084994
:101C9800FFF7B2FD102223682000DA61230000223A
:101CA80040331A70FFF737F910BDC0460000FFFF38
:101CB800038000007047704770470100020010B5AC
:101CC80041310C7800234032602C06D1403C0C7026
:101CD80003631370FFF7F0FF10BD03631370FFF782
:101CE8004AF9F9E770B50200050004000020423205
:101CF80041352B781070324A283BE2626085626C6D
:101D08000A436264022B2BD803212000FFF774FDDD
:101D180028232B702B4BA06B6363236B00282ED0DA
:101D28001A001021113A8A4329D123681A685204EB
:101D380003D51A6824490A401A60FFF743FC0128B2
:101D480019D0A06B214B00228363230040331A7003
:101D5800FFF7FCFB002811D0A06B836B98470DE0C0
:101D680020001B49FFF748FD2B78602B01D020236A
:101D78002B700023CFE72000FFF79FFF70BDE06BBB
:101D88000028F8D01022123B9343F4D123681A6834
:101D9800120403D51A680F490A401A60FFF712FCAB
:101DA8000128E8D0E06B094B00228363230040330D
:101DB8001A70FFF7CBFB0028E0D0E06BCDE7C046F8
:101DC8000000FFFF191F0008FFBFFFFFBB2300082B
:101DD80003800000FF7FFFFFF7B5036806001A685D
:101DE8004136019220223578DA61082304000F0079
:101DF8009D43212D50D140492000FFF7FDFC25636C
:101E0800802223681202596820000A435A605A68DF
:101E18003A490A405A60FFF79BFC019B01225B0488
:101E28003ED52268364913680B401360A36B002B1C
:101E380003D01B685B689BB263857B0711D50423BD
:101E48009F432368626A5B6A1370636A0133636243
:101E5800238D002B05D0013B2385638D013B9BB26D
:101E68006385638D002B03D00423626C1343636482
:101E78002300002242331A70656C626395421AD0BF
:101E88002000616CFFF72EFF3378282B03D139002F
:101E98002000FFF7D9FEF7BD222DB1D11949ABE7D4
:101EA800019BDB0B1342C8D02268174913680B400B
:101EB8001360E36BBBE72700E36A144A4037934299
:101EC8000CD02000FFF730FE2023104A2000E262E9
:101ED800337025633D70FFF71EF8DCE72023327866
:101EE8002000337025633D70222A02D1FFF729F8BC
:101EF800D1E7FFF73CF8CEE70180000000E800FEDC
:101F0800FFBFFFFF02800000FF7FFFFF0000FFFF11
:101F18000300F7B5403301931B780400C76A0E002D
:101F280015000220012B24D00123019A13704A09BD
:101F38001A4205D06A091A4202D02000FFF74CFF66
:101F48000123F20635D52A091A4232D0638D002BB7
:101F580020D1230041331A78282A0BD180229204F9
:101F6800974207D131002000FFF76EFE0020019B49
:101F78001870FEBD102219782368DA612929F5D175
:101F88002D498F42F2D02000FFF7E2FB2000FFF737
:101F9800CBFDEBE710222368DA610423626C13435C
:101FA8006364264B1F42E1D12000616CFFF79AFE63
:101FB800DCE7012372071AD5AA081A4217D0638DE5
:101FC800002B0DD02368626A5B6A1370636A013361
:101FD8006362238D013B2385638D013B9BB263853F
:101FE800638D002BC2D1144B9F42BFD0CEE7012393
:101FF800320706D5EA081A4203D02000FFF7D6FDBB
:10200800B4E70123B207B1D5DD401D42AED0638DE0
:10201800002B0DD0636A22681978013391626362DC
:10202800638D013B9BB26385238D013B23859DE72F
:10203800024B1F42AAD099E70000FFFFFFFFFFFEF7
:1020480073B52022050003684135DA612B78040056
:102058000E00212B2CD10121FFF7CEFB1123236386
:1020680023682E495A680A405A60002262632C4A43
:10207800E262F20605D51022DA61616C0C3A0A4375
:1020880062642A78602A05D1720703D55B6ADBB2DD
:102098000193019B2000FFF75BFB636C2A78602AA1
:1020A80001D0002B0CD02000616CFFF71BFE73BD24
:1020B8002B78222BD4D10221FFF79EFB1223CEE7E7
:1020C8002A78212A13D1013A2A7022002100236399
:1020D80042321078403113700B70402803D1200031
:1020E800FFF7E8FDE3E72000FFF7F7FCDFE72A78D2
:1020F800222ADCD1023A2A702200210023634232CC
:102108001078403113700B70402803D12000FFF77E
:10211800D2FDCCE72000FFF7E1FCC8E700E800FEAD
:102128000000FFFF0300F7B5403301931B7804005C
:10213800C76A0E0015000220012B3DD00123019A29
:1021480013704A091A4205D06A091A4202D02000BF
:10215800FFF742FE0120F3065CD52B09034259D054
:10216800AB0BED0B9C462B4303424FD0E16B0B1E90
:1021780006D00023054203D00B685B685A425341DE
:102188002200A16B4132002906D06046C00703D562
:1021980009684968002901D0012B1ED11378282B22
:1021A8000BD180239B049F4207D131002000FFF709
:1021B8004BFD0020019B1870FEBD1178102223688A
:1021C800DA612929F5D118498F42F2D02000FFF7AA
:1021D800BFFA2000FFF7A8FCEBE710212368D961BC
:1021E8000423616C0B4363641378104ADBB2174213
:1021F800DFD108229343212B01D1236301E0222B55
:10220800FBD02000616CFFF76DFDD2E71022236838
:10221800DA61CEE701233207CBD5ED081D42C8D0DD
:102228002000FFF7C3FCC4E70000FFFFFFFFFFFE2D
:1022380037B5050040352B7804000220012B17D054
:10224800012308092B70184213D01009184210D026
:10225800102223682000DA610423626C20211343D2
:102268006364FFF799FA2000FFF772FA00202870DC
:102278003EBD0123080646D59009184243D04021A7
:1022880023681A688A431A60628D002A2FD0596819
:10229800638D8905890DFF2B1BD9FF232385802397
:1022A8005B040020228D0090D2B22000FFF75EFA76
:1022B800638D228D9B1A9BB26385230041331A7864
:1022C80023681968222A0FD1802212020A431A6051
:1022D800CCE7638DE26A23851C4B9A4201D0E36AFE
:1022E800DFE780239B04DCE78022D201EEE75B680E
:1022F8009B0103D42000FFF7F2FBB7E74021200041
:10230800FFF7F0FCB2E70123480613D590091842FD
:1023180010D0638D002BF1D123685A689201A5D49F
:10232800E16A0A4A9142E5D180225968D2010A43FA
:102338005A609BE70123880600D497E752091A429E
:1023480000D193E72000FFF77BFE8FE70000FFFF37
:10235800036870B59C6901211A68E50508D5D50997
:102368000D4205D0456C2943416480214900D9615B
:102378000121650509D5D5090D4206D0456C0731FF
:10238800294341648021C900D9610121A40509D5E7
:10239800D2090A4206D00222416C0A4342648022D2
:1023A8009200DA610B23416C194201D0FFF79AFCC5
:1023B80070BD806A10B5836B002B01D000229A6330
:1023C800C36B002B01D000229A63FFF776FC10BD87
:1023D80010B5114C1149236802000B4003432360D8
:1023E800802300209B009A420ED10D4B0D4918689E
:1023F80006235843FDF766FE8022431CD20061691C
:1024080008001040114200D110BD002B01D0013B43
:10241800F5E70320F8E7C04600700040FFF9FFFF2A
:102428004400002040420F00F0B5040085B00028A9
:1024380023D00368DB0710D423689B075ED4236886
:102448001B0700D5C3E023685B0700D5F4E0E36908
:10245800002B00D07AE1002029E03822AF4DAB688C
:102468001340EA68102B0AD1D243930709D12B688D
:102478009B03E1D56368002BDED1012017E0082B10
:10248800F5D0802263685202934212D12A6813431E
:102498002B60FEF74DFF80270600BF022B683B42EA
:1024A800CAD1FEF745FF801B6428F7D9032005B081
:1024B800F0BDA021C9028B4208D180232968DB0224
:1024C8000B432B602B681A432A60E2E72A68944979
:1024D8000A402A602A6893490A402A60002BD8D10A
:1024E800FEF726FF80270600BF022B683B42A3D0D9
:1024F800FEF71EFF801B6428F7D9D7E73823874DDE
:10250800AA681340EA68102B28D103210A40022A3E
:1025180026D12A68520502D5E268002AADD069683A
:1025280062698148120201400A436A60002B0DD19A
:102538002B687E4A1340226913432B602B687C4A20
:102548009B045B0FDA4013007A4A13607A4B1868D1
:10255800FEF7A6FE002800D171E78EE7002BD8D041
:10256800E368002B20D02B68704A8027134022692B
:10257800FF0013432B6080232A685B0013432B6002
:10258800FEF7D6FE06002B683B4207D06A686369EF
:1025980065491B020A4013436B6050E7FEF7C8FE0B
:1025A800801B0228EFD981E72B68644A80271340F3
:1025B8002B60FEF7BDFE0600FF002B683B4200D1F2
:1025C8003DE7FEF7B5FE801B0228F6D96EE73822F4
:1025D800524DAB681340182B08D12B6E9B0700D4C3
:1025E80031E7A369002B00D02DE746E7A269012354
:1025F800002A10D02A6E022713432B66FEF798FE96
:1026080006002B6E3B4200D01DE7FEF791FE801BB3
:102618000228F6D94AE72A6E02279A432A66FEF765
:1026280087FE06002B6E3B4200D10CE7FEF780FECA
:10263800801B0228F6D939E73822384DAB68134099
:10264800202B08D1EB6D9B0700D400E7A368002B73
:1026580000D0FCE611E780220021EB6B52050091C7
:10266800134208D1EB6B1343EB63EB6B13400393FB
:10267800039B012300938027314E7F0033683B4240
:1026880015D0A368012B22D1EA6D1343EB65FEF741
:102698004FFE02270600EB6D3B4238D0009B012B12
:1026A80000D0D4E6EB6B274A1340EB63CFE63368E0
:1026B8003B433360FEF73CFE019033683B42E0D178
:1026C800FEF736FE019BC01A0228F6D9EEE6EA6D3F
:1026D800052B05D1013B1343EB65EA6D0123D4E7D4
:1026E80001218A43EA65EA6D03318A43EA65002BD2
:1026F800CDD1FEF71DFE02270600EB6D3B42CDD083
:10270800FEF716FE104B801B9842F6D9CEE6FEF770
:102718000FFE0D4B801B9842BDD9C7E60010024042
:10272800FFFFFEFFFFFFFBFFFF80FFFFFFC7FFFF6D
:102738000024F4004400002008000020FFFEFFFFF2
:1027480000700040FFFFFFEF8813000038213F4D65
:10275800AA680A40102A53D03D4A022B38D12B6868
:10276800802713402B60FEF7E3FD0600BF042B68AB
:102778003B4227D1616A236AEA680B4335498026C0
:102788000A401343E26AB6041343226B1343A26A56
:1027980012021343EB6080232A685B0413432B6007
:1027A8008023EA685B051343EB60FEF7C1FD040074
:1027B8002B68334200D04EE6FEF7BAFD001B022814
:1027C800F6D973E6FEF7B4FD801B0228CFD96DE673
:1027D8002B68802613402B60FEF7AAFD0400B60480
:1027E8002B6818003040334204D1EB681A4A134072
:1027F800EB605CE6FEF79CFD001B0228F0D955E66D
:10280800012B00D139E60322EB68216A1A408A427B
:1028180000D032E67022616A1A408A4200D02CE663
:10282800FE21A26AC90119401202914200D024E691
:10283800F822E16A92031A408A4200D01DE6226B10
:102848005B0F5B07934200D105E616E600100240D5
:10285800FFFFFFFE8C80C11FFCFFFEEF382370B521
:102868001E4CA2681A4205D123681D489B045B0FC1
:10287800D84070BDA2681A40082A2AD0A2681A4017
:10288800102A1AD1E368E168DB434906490F7F251E
:1028980001319B070CD1E36812481B0A1D40FDF764
:1028A80011FCE1686843490F0131FDF70BFCE0E7D3
:1028B800E3680B481B0A1D40F1E7A2681A40202A6A
:1028C80009D0A26800201340182BD2D1FA20C001E9
:1028D800CFE70448CDE780200002CAE70010024095
:1028E8000024F40000127A00F7B504000D00002857
:1028F80001D10120FEBD07274A4E33683B408B4279
:102908002AD321688B073BD4CB0748D407273368E1
:102918003B40AB420AD93368BB432B433360FEF7D5
:1029280007FD019033683B40AB426BD123683E4DB5
:102938005B076FD4FFF792FFAB683C4A1B051B0F80
:102948009B009B581F221340D840394B1860394BC5
:102958001868FEF7A5FCCDE73368BB430B4333602B
:10296800FEF7E6FC019033683B40AB42C9D0FEF766
:10297800DFFC019BC01A304B9842F4D90320B9E719
:10298800294A4B0704D5E0239068DB010343936091
:1029980093682A480340A06803439360B4E76268D9
:1029A800214F012A19D13B689B03A2D50721BB6897
:1029B8008B431343BB60FEF7BBFC01903823BA6816
:1029C8001A406368DB009A42A0D0FEF7B1FC019B75
:1029D800C01A194B9842F1D9D0E7022A03D13B68B3
:1029E8009B01E3D485E7002A03D13B685B05DDD46E
:1029F8007FE70223032A03D1396E1942D6D178E73B
:102A0800F96DFAE7FEF794FC019BC01A0A4B98424D
:102A180088D9B3E7AB680A4A1340E2681343AB604E
:102A280088E7C0460020024000100240E44E00083B
:102A3800440000200800002088130000FFF0FFFF7A
:102A4800FF8FFFFF064B074A9B685B045B0F9B00E9
:102A58009B581F221340044A1068D8407047C0464C
:102A680000100240244F000844000020802370B565
:102A78009B020500634C984224D1C020E36DE26DAF
:102A880080000340920704D580225200934200D16F
:102A9800B0E0226E920704D580229200934200D1C2
:102AA800ABE021688022080092021040114227D032
:102AB800554A9818431E9841544B40421840544B6D
:102AC800C0181DE00322E3681340022B19D0E06808
:102AD80010400338434258414E4B40421840E16889
:102AE8004906490F0131FDF7EDFA802302001B0169
:102AF8009D4265D007D8012D29D0202D45D0002032
:102B080070BD4548EBE78023DB019D42F7D1636D3B
:102B18009B0F9907002B25D080231B0699426FD065
:102B280080230020DB059942EAD1E1688023080070
:102B38005B0218401942E3D0E068E168400489026A
:102B4800400EC90E50430131FDF7BCFAD8E7616D5C
:102B580003220B001340114202D1FFF773FFCFE7A6
:102B6800012B02D1FFF77AFECAE72268520501D588
:102B7800022B45D0E16D0222080010401142BFD05F
:102B8800033B5A425341D803BAE7616DC0220B0098
:102B9800920113401142E0D0802252019342E1D0C9
:102BA800216880220800D20010401142A8D01B4A98
:102BB8009818431E98411A4B40421840164B7FE71D
:102BC800C0208021636D00021840C9018842ACD042
:102BD8000028C7D02268530503D5802212029042EC
:102BE8000ED0104BC018431E98410F4B404218405E
:102BF8000E4B65E78020000282E7FA20C0017FE7DC
:102C080005487DE70010024000FDFFFF702FFCFF24
:102C180090D0030000127A000024F40000E0FFFFC7
:102C280000DC0BFF0040FFFF8044FFFF80BB00007B
:102C38000122036A70B593430362036A164A446823
:102C4800856915400A681543022293438A6813432D
:102C5800124A904205D0124EB04202D0114EB042F4
:102C680013D10826B343CE6833430426B3439042B6
:102C780005D00B4A904202D00A4A904205D10A4A2E
:102C88008E6922404C69344314434A684460856124
:102C98004263036270BDC0468CFFFEFF002C0140FA
:102CA8000044014000480140FFFCFFFF036A174A47
:102CB80070B513400362036A154D4268C4692C401D
:102CC8000D682C43134D2B408D682D022B43124D5C
:102CD800A8420ED1114D1D40CB681B022B43104D4D
:102CE8002B40104D4E6915408A69324312012A4320
:102CF80005E00D4DA842F4D00C4DA842F1D0426039
:102D08004A68C461C263036270BDC046FFFEFFFF2C
:102D18008CFFFEFFFFFDFFFF002C0140FFF7FFFFC8
:102D2800FFFBFFFFFFCFFFFF0044014000480140C9
:102D3800036A124A30B513400362026A104C4368B2
:102D4800C56925400C68240225430E4C22408C6836
:102D5800240322430C4CA04205D00C4CA04202D0C4
:102D68000B4CA04204D10B4C23404C69A4012343D3
:102D780043604B68C5610364026230BDFFEFFFFF2B
:102D8800FF8CFFFEFFDFFFFF002C014000440140E5
:102D980000480140FFBFFFFF036A70B5104E114C99
:102DA80033400362026A4368456D25400C68254339
:102DB8000D4C22408C68240422430C4CA04205D0C0
:102DC8000B4CA04202D00B4CA04203D14C693340BB
:102DD8002402234343604B6845658365026270BDE6
:102DE800FFFFFEFF8FFFFEFFFFFFFDFF002C0140EE
:102DF8000044014000480140036A124A30B51340BC
:102E08000362026A104C4368456D25400C68240231
:102E180025430E4C22408C68240522430C4CA042CA
:102E280005D00C4CA04202D00B4CA04204D10B4C54
:102E380023404C69A402234343604B684565C3653E
:102E4800026230BDFFFFEFFFFF8FFFFEFFFFDFFFD6
:102E5800002C01400044014000480140FFFFFBFFF7
:102E680070477047704700000222036810B519695F
:102E7800040011420ED0D96811420BD0053A1A61EC
:102E8800043202779B699B0700D186E0FEF7FAF9C6
:102E980000232377042223681969114211D0D968C5
:102EA80011420ED0093A1A61073222779A69C02373
:102EB8009B0020001A4200D175E0FEF7E3F90023D9
:102EC800237708222368196911420ED0D968114264
:102ED8000BD0113A1A610D322277DB6920009B076B
:102EE80067D0FEF7CFF900232377102223681969EA
:102EF800114210D0D96811420DD0213A1A61193205
:102F08002277DA69C0239B0020001A4257D0FEF7C7
:102F1800B9F900232377012223681969114207D0E0
:102F2800D968114204D0033A20001A61FEF77FF9EC
:102F3800802223681969114208D0D968114205D046
:102F4800023AFF3A20001A6100F049FB23681A6927
:102F5800D20507D5DA68120604D51C4A20001A6182
:102F680000F03EFB402223681969114207D0D96856
:102F7800114204D0813A20001A61FFF773FF202222
:102F880023681969114207D0D968114204D0413A1F
:102F980020001A6100F022FB10BDFEF76FF9200037
:102FA800FFF75FFF74E7FEF769F92000FFF759FFA5
:102FB80085E7FEF763F92000FFF753FF93E7FEF775
:102FC8005DF92000FFF74DFFA3E7C046FFFEFFFFB6
:102FD800194A10B50368904202D0184CA04208D193
:102FE8007024A3434C68234390420BD0134CA04257
:102FF80008D0134CA04205D0124CA04202D0124C6B
:10300800A04203D1114C2340CC6823438024A3431E
:103018004C69234303608B68C3620B6883629042E8
:1030280005D0084B984202D0074B984201D10B6952
:1030380003630123436110BD002C014000040040DC
:10304800002000400044014000480140FFFCFFFF11
:1030580070B504000120002C23D025003D352B78C5
:10306800DAB2002B05D123003C3320001A7001F09E
:103078001DFA02232B702068211DFFF7A9FF2200EB
:10308800012300204832137047340A3A13705370F2
:103098009370D370137153719371D371137223703A
:1030A8002B7070BD70B504000120002C23D02500C2
:1030B8003D352B78DAB2002B05D123003C332000B4
:1030C8001A70FFF7CDFE02232B702068211DFFF731
:1030D8007FFF2200012300204832137047340A3A48
:1030E800137053709370D370137153719371D371BC
:1030F800137223702B7070BD1022036A70B593434E
:103108000362026A154C4368856925400C682402ED
:1031180025432024A2438C6824012243104CA0425A
:103128000FD18024A2431400CA681201224340240C
:10313800A2430C4E4C691E408B6923439B003343CA
:1031480005E0094CA042F4D0084CA042F1D04360FD
:103158004B6885618363026270BDC046FF8CFFFEC9
:10316800002C0140FFF3FFFF0044014000480140EC
:10317800F8B507003C373B7804000D001600022024
:10318800012B0CD0013838700C2A51D008D8042AE9
:103198002DD0082A3CD0002A17D000233B70F8BD58
:1031A800102A56D0142AF8D12068FFF725FE80226D
:1031B80023681201596D0A435A655A6D2D490A4010
:1031C8005A652A69596D120251E02068FFF730FDEF
:1031D8000822236899690A4304219A619A698A43F3
:1031E8009A619A6929690A439A610020D5E720689B
:1031F800FFF782FF80222368120199690A439A61C6
:103208009A691C490A409A612A6999691202EAE78F
:103218002068FFF74BFD04212368DA691643DE6155
:10322800DA698A43DA61DA6929690A43DA61DCE72B
:103238002068FFF77DFD802223681201D9690A43BF
:10324800DA61DA690B490A40DA612A69D969120236
:10325800EBE72068FFF7A0FD08222368596D0A43B1
:1032680004215A655A6D8A435A655A6D29690A4379
:103278005A65BAE7FFFBFFFF30B58468034D0A4380
:103288001B022C4013432343836030BDFF00FFFF24
:10329800F8B5050002233C35040028781A000128F7
:1032A8001DD0260001273D362F7033702068474A0D
:1032B8008368134083600B68602B58D034D8402B48
:1032C80000D16CE015D8202B0DD00AD81022190097
:1032D800914308D03A000123337000232B7010006B
:1032E800F8BD302BF6D1826839490A4013430722CA
:1032F80017E0502BEED1CA684C68016A036ABB43D9
:10330800F02703628369BB431F0013010A2291431C
:103318000A003B4322438361026283682C4A1A40B5
:1033280057231343836016E08022520194460022FB
:103338006345D0D08022920193420ED03A00702B80
:10334800C9D1CB684A688968FFF796FF7723226856
:1033580091680B4393600022BDE7CB684A6889688F
:10336800FFF78AFF80232268DB019168F1E74A684A
:10337800CF681021036A174C8B4303628169036A83
:103388002140A024A3431C003F03130123433943D6
:103398008161036283680E4A1A406723C1E7CA68DD
:1033A8004C68016A036ABB43F02703628369BB4325
:1033B8001F0013010A2291430A003B432243836101
:1033C80002628368024A1A404723AAE78800CEFFB0
:1033D8008FFFCFFFFF0FFFFF1F2310B501241940F8
:1033E8008C408A40036AA3430362036A1A43026259
:1033F80010BD000010B503000400002905D13E33BC
:1034080001201A78824220D010BD042901D13F330F
:10341800F6E708290FD140331B780120013B5A1EDB
:103428009341DBB2002BEFD10223220008292DD1D2
:10343800403213700BE00C2901D14133ECE710291D
:1034480001D14233E8E74333E6E702221A7001224A
:103458002068FFF7C1FF236818498B4220D0184A1B
:1034680093421DD0174A93421AD0174A93421FD14C
:103478009A68164900200A40062AC5D007398A42A8
:10348800C2D0012219680A431A60BDE70C2901D18C
:103498004132CEE7102901D14232CAE74332C8E7A8
:1034A8008022586C120202435A648B42DDD1DFE756
:1034B8000122196800200A431A60A5E7002C014080
:1034C800004401400048014000040040070001009A
:1034D80010B5FFF78FFF10BD70B50400002200681B
:1034E8000D00FFF779FF23681C4A1D49934205D058
:1034F8001C4A934202D01C4A93420AD11A6A0A42D1
:1035080007D1186A194A104203D15A6C1848024068
:103518005A641A6A0A4207D1196A144A114203D135
:1035280001211A688A431A600123002D03D13E3411
:103538000020237070BD042D01D13F34F8E7082D19
:1035480001D14034F4E70C2D01D14134F0E7102DBE
:1035580001D14234ECE74334EAE7C046002C01408D
:1035680011110000004401400048014044040000DB
:10357800FF7FFFFF10B5FFF7AFFF10BDF0B50400E8
:1035880002223C34257803001000012D1FD01D00B5
:103598003D352A701A680E4E53689068B24203D1BE
:1035A8000C4F3B404F683B437027BB430F683B437E
:1035B8005360B24202D0084B9A4204D18023984308
:1035C8008B6818439060012300202B702070F0BD99
:1035D800002C0140FFFF0FFF0004004070477047B8
:1035E8007047000030B5EFF31084012282F3108891
:1035F8000168134D0B682B400B6084F31088EFF3C0
:10360800108182F3108802680E4C936823409360FF
:1036180081F31088C36E012B0AD1EFF3108183F375
:103628001088102402681368A343136081F310887C
:103638000300202288331A600023C366036730BD65
:10364800DFFEFFFFFEFFFFEF806A0023020010B5D8
:103658005E321380083A138000F06EFF10BD704789
:10366800F7B50168C14DCB6904000A6888682B4228
:1036780010D120252B4200D199E0802676051540EF
:103688000640354300D192E0236F2000002B00D084
:1036980082E082E0B64D0540AC466646B54D154021
:1036A800354300D183E001252B4207D0D60505D547
:1036B80026000D628C3637683D43356025000226AA
:1036C8008C350195334207D0C50705D5019D0E629B
:1036D8002F68B6193E432E600426334209D0C50729
:1036E80007D527000E628C373E68350002262E4328
:1036F8003E60082633420AD02027654617402F43EC
:1037080005D027000E628C373D682E433E60802727
:1037180026003F018C363B4206D0550104D50F6286
:1037280020213768394331603168002935D020219C
:103738000B420AD01140802252051040014304D0A8
:10374800236F002B01D0200098472268019B402757
:103758001B68966828223E40134020001E4321D053
:10376800FFF740FF23689B683B4217D0EFF31081B7
:10377800012383F3108822689368BB43936081F325
:103788001088E06F002809D07B4B8363FDF7DEFECD
:10379800002802D0E06F836B9847F7BD200000F047
:1037A800CBFEFAE700F0C8FE019B1E60F5E7E56E68
:1037B800012D00D098E01026334200D194E0324227
:1037C80000D191E00E628B6840221800104013422D
:1037D80052D0E36F19684B689BB2002BDDD02000F4
:1037E8005C3000889842D8D920005E300380096890
:1037F8002023080018400190194231D1EFF31087B7
:1038080085F3108820685D4E01683140016087F3B8
:103818001088EFF3108785F3108820688168A94322
:10382800816087F31088EFF3108085F31088216892
:103838008F6897438F6080F3108822008832136066
:10384800019BE366EFF3108185F31088102022684E
:1038580013688343136081F31088E06FFDF738FE27
:10386800230022005E335C321B881188C91A89B292
:103878002000FFF7F4FE90E722005E3213881288DA
:103888009BB2002A00D188E722005C321188C91A4D
:1038980089B2002900D180E7EFF3108785F31088FB
:1038A8002268374E13683340136087F31088EFF3AC
:1038B800108785F310882268324E936833409360EE
:1038C80087F310882300202288331A60E066206777
:1038D800EFF3108085F31088102522681368AB4336
:1038E800136080F31088C3E780256D032B4206D050
:1038F800460204D520000D6200F05AFE4DE78021F3
:103908000B4207D080252D0411402840084301D0E0
:10391800636FBAE640210B4216D00A4214D0EFF387
:103928001080012383F31088226813688B43136087
:1039380080F31088230020220833DA670023200050
:10394800636700F0F2FD28E7190205D5510003D599
:10395800200000F049FB20E7DB0100D41DE7002A26
:1039680000DB1AE7200000F03EFB16E70F08000016
:10397800010000102001000451360008FFFEFFFF7F
:10398800DFFEFFFFFEFFFFEF010088310A68F8B590
:103998000368222A49D1020060325B6A1288134008
:1039A800826D13700200836D5E3201338365138864
:1039B800013B9BB2138013889CB2002B31D1EFF3EB
:1039C8001086012282F3108805681A4F2B683B4045
:1039D8002B6086F31088EFF3108682F31088056851
:1039E800AB689343AB6086F3108820230B60C36EEB
:1039F8000467934216D1C466EFF3108483F31088EA
:103A0800102301680A689A430A6084F310880268E0
:103A1800D169194200D0136203005C331988FFF79B
:103A28001EFEF8BD00F07AFDFBE7082299690A43FB
:103A38009A61F6E7DFFEFFFF020088321168F8B5E9
:103A48000368222948D104006034596A2488836DA8
:103A5800214019800100023383655E310B88013BE8
:103A68009BB20B800B889CB2002B31D1EFF31086F0
:103A7800012181F3108805681A4F2B683B402B60A1
:103A880086F31088EFF3108681F310880568AB6819
:103A98008B43AB6086F3108820231360C36E0467E2
:103AA8008B4216D1C466EFF3108483F31088102379
:103AB80001680A689A430A6084F310880268D16929
:103AC800194200D0136203005C331988FFF7C7FD61
:103AD800F8BD00F023FDFBE7082299690A439A61C3
:103AE800F6E7C046DFFEFFFFF0B5036885B0DD6985
:103AF8001A689E6802920200883212680400222A1C
:103B080000D0B7E0030060331B88019303006833DB
:103B18001B8803932200039B5E32002B02D02023D4
:103B28001D4223D113889AB2002B1DD0230068337D
:103B38001B88934218D9EFF31080012282F3108872
:103B480021684F4D8B682B408B6080F310884D4B5C
:103B58002367EFF3108182F310882023226810680E
:103B68000343136081F3108805B0F0BD2368019901
:103B78005B6A0B40A16D0B70A36D0133A3651388BD
:103B8800013B9BB2138007232268D5691D422DD0C3
:103B9800063B1D4208D00299C90505D521001362CC
:103BA8008C31086803430B6002231D4208D0F107DB
:103BB80006D5210013628C310868DB1803430B60BB
:103BC80004231D4208D0F10706D5136222008C3267
:103BD8001168023B0B43136027008C373B68002BAE
:103BE80004D0200000F0A8FC00233B6023005E33D3
:103BF8001B889AB2002B00D08CE7EFF310870133B3
:103C080083F310882068036819001F4B194001606E
:103C180087F31088EFF31080012383F3108821685D
:103C28001A4F8B683B408B6080F31088230020215B
:103C380088331960E36E2267012B17D1E266EFF330
:103C4800108083F3108821680F330A689A430A604A
:103C580080F310882268D169194200D013622300CA
:103C68005C3320001988FFF7FAFC53E7200000F0C6
:103C780055FC4FE7082299690A439A6174E7C046E0
:103C8800FFFFFFEF91390008FFFEFFFFFEFFFFEF88
:103C9800F0B5036885B0DD691A689E680292020073
:103CA800883212680400222A00D0B5E0030060338D
:103CB8001B880193030068331B8803932100039B2F
:103CC8005E31002B02D020231D4223D10B889AB2EB
:103CD800002B1DD0230068331B88934218D9EFF3BB
:103CE8001080012282F3108821684E4D8B682B408A
:103CF8008B6080F310884C4B2367EFF3108182F3BD
:103D080010882023226810680343136081F3108809
:103D180005B0F0BD2368019D586AA26D2840108047
:103D28000232A2650A88013A92B20A800722DD6946
:103D380015422DD0063A154208D00299C90505D575
:103D480021001A628C31086802430A600222154277
:103D580008D0F10706D521001A628C31086892183C
:103D680002430A600422154208D0F10706D51A62F8
:103D7800220002238C3211680B43136027008C3712
:103D88003B68002B04D0200000F0D6FB00233B60EA
:103D980023005E331B889AB2002B00D08EE7EFF326
:103DA8001087013383F310882068036819001F4BBC
:103DB8001940016087F31088EFF31080012383F323
:103DC800108821681A4F8B683B408B6080F31088FD
:103DD8002300202188331960E36E2267012B17D155
:103DE800E266EFF3108083F3108821680F330A68C6
:103DF8009A430A6080F310882268D169194200D07A
:103E0800136223005C3320001988FFF728FC55E76C
:103E1800200000F083FB51E7082299690A439A6160
:103E280076E7C046FFFFFFEF413A0008FFFEFFFFBD
:103E3800FEFFFFEF030008338830DA6F0068104395
:103E4800704700000300F0B5002480258165816873
:103E58005C331A805A806D0104670433A9424FD13C
:103E68000169A1424AD13F491980030000218C33DE
:103E780019602231043B1960EFF31084012383F3A6
:103E8800108801688D682B438B6084F31088802626
:103E980080240100476E85680369B6056401803196
:103EA800B7423FD106006836368896423AD82E4A3D
:103EB800A54203D12D4A002B00D02B4A02670022CD
:103EC8000A7093420BD0EFF31081012383F310881B
:103ED8000268FF3314682343136081F31088EFF3FB
:103EE8001081012383F31088802302685B059068A2
:103EF8000343936081F310880020F0BDFF21B3E7EE
:103F0800002904D101690029F8D07F21ACE7802578
:103F18006D05A94204D101690029F6D03F21A3E724
:103F28001C80A2E7124AA54203D1124A002B00D0F6
:103F38000F4A026700220A700132002B0AD0EFF301
:103F4800108182F31088902302685B001068034395
:103F58001360CFE7EFF3108182F310880268202303
:103F68001068F4E7FF010000F13A0008993C0008E6
:103F780091390008413A00080300883370B51C687D
:103F88000223202C2DD1013B00292AD0002A28D039
:103F9800802384685B019C4206D10369002B03D10E
:103FA8000124230021421CD10400803425780223F7
:103FB800012D16D0013B23700024C4660468646890
:103FC80024020BD5EFF3108583F31088802304684F
:103FD800DB0426683343236085F31088FFF732FF3C
:103FE8000300180070BD7047704700007FB50023BC
:103FF80004280FD81B4B5A6BFCF75AF8030F1821EB
:104008002A0001210A435A635B6B0B400193019B11
:10401800A023DB05180007B000BD02210A435A633C
:104028005B6B0B400293029B0F4BF3E704210A439F
:104038005A635B6B0B400393039B0C4BEAE7082125
:104048000A435A635B6B0B400493049B084BE1E7FC
:1040580020210A435A635B6B0B400593059B054B74
:10406800D8E7C04600100240000400500008005085
:10407800000C00500014005010B5FDF759F910BDA0
:10408800704710B5FDF748F9FDF7B7F9FFF7F8FFE6
:1040980010BD704780200E4B4005D96B84B001439A
:1040A800D963DA6B024001200192019A196C01432D
:1040B800196480211A6C490102400292029A9A6B93
:1040C8000A439A639B6B0B400393039B04B07047AE
:1040D8000010024010B5FFF7DDFFFDF709F9FFF703
:1040E800D8FFFCF7F1F80248FDF78CF910BDC0467F
:1040F80020000020431C04D100207047834204D0D4
:104108000C310B685A1CF9D1F6E70120F5E70000DD
:10411800F7B505000C00431C00D1FEE70F23434A06
:104128000340C0B29B0009389F5803280ED8FBF7FC
:10413800BFFF02263035C0232A009B011A409A424D
:1041480004D108233A4A11680B4313602806000F6C
:10415800FFF74CFF8268030094463A0003207A4335
:104168005043C143009161460726084326409860A2
:10417800032E4CD83000FBF79BFF25251525C023BF
:104188002A009B011A409A42E0D1294A102311685B
:10419800DAE70821264A13688B43D6E7244A102118
:1041A8001368F9E76004410E0191290724D50F210E
:1041B800380A4043404341435D6A8D43019948436F
:1041C80005435D621500754318680099013E084073
:1041D80028431860012E04D85868210718D50743CA
:1041E8005F60A406A40F012C15D0022C19D0DA6840
:1041F80000991140D96013E015000F215543694318
:10420800186A884301994D4328431862DAE7FEE7A4
:10421800B8435860E5E7D868009901400A43DA6076
:10422800F7BDD868009952000140F7E7A44E00088E
:104238000000014010B5431C07D110BD834203D1D3
:104248008968FFF765FFF8E70C310B685A1CF5D150
:10425800FEE70B685A1C01D1002002E0834201D11D
:10426800486870470C31F4E7030010B500205A1C69
:1042780002D01800FFF7EDFF10BD030008008B42C5
:1042880004D0002B02D0002901D11800704700206B
:10429800FCE70000A0220D4BD20019680C480A4325
:1042A80000211A6099601A6802401A60802252013F
:1042B800DA601A68074802401A60074A99611A6268
:1042C8008022064B12059A607047C04600100240D3
:1042D800FFFFF6FEFFFFFBFF3B03000000ED00E0E1
:1042E800043870470368234A86B093420BD1802074
:1042F800214A0001116C01431164136C03400193BE
:10430800019B06B070471D4A934213D01C4A934242
:104318001AD01C4A934222D01B4A9342F1D18020E2
:10432800154AC002116C01431164136C03400593D4
:10433800059BE6E70220104AD16B0143D163D36B9A
:1043480003400293029BDCE780200B4A0002116CB9
:1043580001431164136C03400393039BD1E780204E
:10436800054A8002116C01431164136C03400493E5
:10437800049BC6E7002C01400010024000040040E6
:104388000020004000440140004801400368134AEF
:10439800934205D1124A1349136C0B40136414E07D
:1043A800114A93420CD0114A93420FD0104A9342BB
:1043B80010D0104A934208D1094A0F49136CECE710
:1043C8000221074AD36B8B43D3637047044A0B49D6
:1043D800136CE2E7024A0A49136CDEE7002C01403D
:1043E80000100240FFF7FFFF0004004000200040DB
:1043F8000044014000480140FFFFFBFFFF7FFFFF33
:10440800FFFFFDFF0300421C13D00E4A904213D059
:1044180007D80D4A904211D00C4A1320934207D076
:10442800FEE70B4A90420BD00A4A16209342F7D176
:1044380070470E204042FBE70D20F9E71020F7E710
:104448001520F5E7002C0140000400400020004042
:1044580000440140004801400300421C13D00E4AAA
:10446800904213D007D80D4A904211D00C4A13201D
:10447800934207D0FEE70B4A90420BD00A4A162017
:104488009342F7D170470E204042FBE70E20F9E730
:104498001020F7E71520F5E7002C01400004004044
:1044A800002000400044014000480140F8B50400E5
:1044B800FFF718FF2068FFF7A5FF226DE16CFCF7F6
:1044C8003DFF2068FFF79EFFFCF762FF2768380072
:1044D800FFF7C2FF05003800FFF794FF854209D0B7
:1044E8002800226DE16CFCF729FF2068FFF7B4FF74
:1044F800FCF74EFFF8BD000010B5AD300378064A52
:104508009B009858FFF796FC222318402238434214
:104518005841C0B210BDC04628030020030010B5A2
:1045280090331B680438984710BD030010B59433C6
:104538001B680438984710BD0122036810B5D96973
:104548000400114201D01A620BE00222D96911421B
:10455800F9D10422D9691142F5D10822D969114249
:10456800F1D1201FFFF7C8FF002805D12100012243
:104578002000AA31FFF700FD10BD000010B51B2078
:10458800FCF72CFF024B1868FFF76AF810BDC0460D
:10459800280300201C2010B5FCF720FF034B5868A7
:1045A800002801D0FFF75CF810BDC04628030020A2
:1045B800010010B50122AA31FFF7DEFC10BD000092
:1045C800F8B5134F05003900FFF74EFEFCF734FD30
:1045D800104E8400A359002B0DD139002800FFF795
:1045E80043FE0700B420FCF751FE05003900FCF734
:1045F800B7FDA3591D6033591C68002C06D0200054
:10460800FCF740FDB4212000FCF744FEF8BDC0468D
:10461800BC4F000810030020002310B5012803D068
:1046280001334008DBB2F9E714225343044A181D4A
:1046380080188168002902D0D2181369984710BDE4
:104648003003002010B5FFF7E7FF10BD10B5FFF7E6
:10465800E3FF10BD10B50120FDF766F80220FDF755
:1046680063F810BD10B50420FDF75EF80820FDF7CB
:104678005BF810BD70B50C241025A8B2013CFDF7FD
:1046880053F86D00002CF8D170BD0000274B10B511
:1046980005211C00180000221970197528340131F1
:1046A800217008301C00C26718003C3421708C301F
:1046B800013101701800983002601800A0300170B4
:1046C8001800AC3002601800B43001701800C03017
:1046D80002601800C83001701C0018005034D43033
:1046E8000260217018001C00DC30643401702170F5
:1046F80018001C00E83078340260217018001C0093
:10470800F030FF3401706171617618009624FC3036
:104718006400DA601A625A639A64DA651A6702609A
:10472800426182621955C26310BDC0463003002041
:1047380010B5044C143C201DFCF774FC024B9C4241
:10474800F8D110BD70040020300300200D488546C4
:10475800FFF7A0FD0C480D490D4A002302E0D4588C
:10476800C4500433C4188C42F9D30A4A0A4C0023B3
:1047780001E013600432A242FBD300F05DF900F0BF
:104788004BF9FEE70020002000000020AC000020CC
:1047980014520008AC00002094040020FEE700003A
:1047A8000206030010B51C20120F042A0AD80020A4
:1047B800074AD9B2840014598C4204D1E022D200AD
:1047C8001340184310BD01301C28F3D1FAE7C04646
:1047D80028510008C3B2F7B50E001B2B2BD8E024D4
:1047E800234AE4009B0020409C580443631C32D0B9
:1047F8000F2325091D401F4F23400193AD00EB599E
:10480800019AD340DB070ED520001B49FFF772FC45
:10481800002802D02000FFF7D3FE0123019A93401D
:104828007A599A437A51052E20D83000FBF740FC7C
:104838000F1A1416181CC0220240C02A0BD1CF2B05
:1048480009D83F230D4A03409B009B58C7E7002126
:104858002000FFF75DFCF7BD1021F9E72021F7E7FD
:104868000321F5E70121F3E70921F1E7FEE7C04657
:104878002851000870040020BC4F0008E8500008C8
:10488800C3B21B2B17D8E022D200024016489B0067
:1048980018581043030600221B0F042B02D8134A92
:1048A8009B009A580F231840114B8000C3580029C9
:1048B80017D093617047C0220240C02A0ED1CF2B77
:1048C8000CD83F230B4A03409B009B58E022D200A0
:1048D8001040054A9B009B581843DBE701204042E3
:1048E800D8E79362E6E7C046285100080C0000208C
:1048F800A44E0008E8500008C3B21B2B0ED8E022D3
:1049080018499B00D2000240585810430F2203094F
:104918001340042B18D900231B69FFDEC022024074
:10492800C02A0ED1CF2B0CD83F230F4A03409B003F
:104938009B58E022D20010400A4A9B009B5818431B
:10494800E4E701204042E1E708499B00595810403C
:10495800074B8000C35808691840C01A43425841A1
:104968007047C04628510008E85000080C00002095
:10497800A44E000810B5FFF77FFB10BD70B5041EEC
:1049880009D0FFF779FB050000F054F8FFF774FB36
:10499800401BA042F8D370BD10B50400FFF7EAFF32
:1049A800E060236820005B699847002808DAFFF771
:1049B800E1FFE368C01AA3689842F2D3012040429D
:1049C80010BDF8B506000D0017000024BC4207D042
:1049D8003000FFF7E1FF002802DB28550134F5E736
:1049E8002000F8BDF7B506000F001D001C1E01923F
:1049F8000CD000243000FFF7CFFF002806DBB842B8
:104A080004D0019B18550134A542F3D12000FEBD06
:104A180010B500F00BF810BD10B500E000BFFBF7B3
:104A28001DFDFBF701FC00F006F8FAE710B5FFF7EB
:104A380051FB10BD7047704770B500260C4D0D4CEA
:104A4800641BA410A64209D1002600F0DBF90A4D28
:104A58000A4C641BA410A64205D170BDB300EB58E4
:104A680098470136EEE7B300EB5898470136F2E76E
:104A7800F8510008F8510008F85100080C520008D5
:104A880010B5034B0100186800F08CF810BDC04643
:104A98004800002010B5034B0100186800F016F814
:104AA80010BDC04648000020002310B59A4200D12E
:104AB80010BDCC5CC4540133F8E70300821893425C
:104AC80000D1704719700133F9E7000070B505008F
:104AD800002910D00C1F2368002B00DAE4182800E6
:104AE80000F0F4F81D4A1368002B05D163601460C8
:104AF800280000F0F3F870BDA34208D921686018B7
:104B08008342F3D118685B6841182160EEE71A0008
:104B18005B68002B01D0A342F9D911685018A04254
:104B28000BD120680918501811608342E0D1186829
:104B38005B68411811605360DAE7A04202D90C2380
:104B48002B60D5E721686018834203D118685B6839
:104B58004118216063605460CAE7C046840400209D
:104B680070B50F4E0D0031680400002902D100F025
:104B780099F830602900200000F094F8431C0AD00E
:104B88000323C51C9D43A84207D0291A200000F022
:104B980089F8431C01D101256D42280070BDC0462B
:104BA80088040020F7B50322CB1C93430833060082
:104BB8001F000C2B32D20C27B94231D8300000F03C
:104BC80085F8324D2B681C00002C2ED1390030009E
:104BD800FFF7C6FF0400431C1ED12C682500002DDA
:104BE8004AD123682900E3183000019300F05AF8ED
:104BF800019B834243D123680337FF1A03239F4352
:104C080008370C2F00D20C2739003000FFF7A8FF17
:104C1800431C34D02368DF19276013E0002BCBDA5C
:104C28000C23002533602800FEBD2268D11B20D448
:104C38000B2917D9E2192760A34211D12A606368AA
:104C4800116053603000250000F048F807220B354A
:104C5800231D9543EA1A9D42E5D05B1BA350E2E76A
:104C68005A60ECE76268A34201D12A60EAE75A6019
:104C7800E8E723006468A7E72C006D68AFE70C231A
:104C88003000336000F02AF8CDE7C04684040020E5
:104C980010B5034B0A000100186800F027F810BD92
:104CA80048000020002370B5064D040008002B6062
:104CB800FCF782F9431C03D12B68002B00D023603A
:104CC80070BDC0468C0400207047704710B502487C
:104CD800FFF7FAFF10BDC0469004002010B5024847
:104CE800FFF7F3FF10BDC04690040020F7B507009A
:104CF8000E001400002905D11100FFF753FF05002D
:104D08002800FEBD002A03D1FFF7E0FE2500F7E7E3
:104D180000F01BF80190844203D835004308A342F1
:104D2800EED321003800FFF73DFF051EE8D0019BB8
:104D380022009C4200D91A0031002800FFF7B4FE77
:104D480031003800FFF7C2FEDAE70B1F1B68181F97
:104D5800002B01DA0B58C0187047062010B500F078
:104D68002DF80120FCF746F970B504000D001F2945
:104D780004D9162303600120404270BD436C002B08
:104D880004D08A009B181A68002A08D1200000F075
:104D980031F82A000100200000F01AF8EDE70020A1
:104DA800012AEAD0511C03D1162301302360E4E71D
:104DB800002428001C6090472000DEE710B5034B54
:104DC80001001868FFF7D0FF10BDC046480000205A
:104DD800002370B5064D0400080011002B60FCF795
:104DE8000BF9431C03D12B68002B00D0236070BD46
:104DF8008C04002010B5FCF707F910BD10B5FFF7BB
:104E0800ACFF0000F8B5C046F8BC08BC9E46704729
:0C4E1800F8B5C046F8BC08BC9E467047C8
:104E2400000000000000000071070008B30700083C
:104E3400AD0500080B080008B1050008B905000815
:104E4400D3050008CB490008ED490008A0860100FD
:104E540080380100C0D4010000007A0DFA005C1211
:104E6400A00F800214000000801A060000E2040073
:104E74000053070000008403640014055802FA007C
:104E84006400000040420F0000350C00804F120007
:104E94000000C2013200F40104013C00640000007F
:104EA40001000000020000000400000008000000EF
:104EB40010000000200000004000000080000000FE
:104EC40000010000000200000004000000080000CF
:104ED40000100000002000000040000000800000DE
:104EE40000000000000000000000000000000000BE
:104EF40000000000000000000000000000000000AE
:104F04000100000002000000030000000400000093
:104F1400060000000700000008000000090000006F
:104F2400000000000000000000000000000000007D
:104F34000100000002000000030000000400000063
:104F440009300000005400400A0600000B00000075
:104F5400005800400A0600001600000000540040FB
:104F64000A06000018000000005400400A06000071
:104F7400FFFFFFFF00000000000000000A300000F7
:104F8400005400400A0600000C00000000580040D5
:104F94000A06000017000000005400400A06000042
:104FA40019000000005400400A060000FFFFFFFF44
:104FB4000000000000000000040000000020004089
:104FC400128400000600000000040040128100006A
:104FD40006010000004401401285000007000000A3
:104FE400002C014012821000070100000004004060
:104FF400120101000702000000200040128400009A
:10500400070300000048014012850000080000006A
:10501400002C01401282000009300000002C0140E5
:10502400120201000A300000002C0140128201002B
:105034000B000000002C01401202020010000000CE
:10504400002C014012021100100100000004004075
:105054001281010011000000002C01401282110095
:1050640011010000000400401201020011020000BE
:10507400002000401280000013000000002C0140BA
:10508400120101001400000000040040128100001D
:105094001500000000040040120101001600000089
:1050A400002C01401281010016010000004401405F
:1050B4001282100017000000004801401282100004
:1050C4001800000000440140128200001900000092
:1050D4000048014012820000FFFFFFFF00000000B3
:1050E40000000000000000000100000002000000B9
:1050F400030000000400000005000000060000009A
:1051040007000000090000000A0000000B00000076
:105114000C0000000E0000000F0000001000000052
:105124001500000000000000010000000200000063
:105134000300000004000000050000000600000059
:1051440007000000080000000B0000000C00000035
:105154000D0000000E0000000F0000001000000011
:1051640011000000120000001300000014000000F1
:1051740015000000160000001700000018000000D1
:10518400190000002E0000002F000000093000006C
:105194000A300000000000000000000000000000D1
:1051A40000000000000000000000000000000000FB
:1051B40000000000000000000000000000000000EB
:1051C40000000000000000000000000000000000DB
:1051D40000000000000000000000000000000000CB
:1051E40000000000000000000000000000000000BB
:0451F40000000000B7
:1051F800194A00080D0200084D050008D5090008E5
:0452080095460008BF
:08520C00E50100083947000824
:105214009804002001000000040000000000005079
:105224000004005000080050000C0050001400500E
:1052340000300240000000000000000000000000F8
:10524400000000000000000000000000000000005A
:10525400000000000024F4004C00002000000000C6
:10526400B8510008D8510008985100080000000007
:10527400000000000000000000000000000000002A
:10528400000000000000000000000000000000001A
:10529400000000000000000000000000000000000A
:1052A40000000000000000000000000000000000FA
:0C52B400000000000000000000000000EE
:040000050800475553
:00000001FF
